{
  "contractName": "Tracker",
  "abi": [
    {
      "constant": true,
      "inputs": [],
      "name": "balance",
      "outputs": [
        {
          "internalType": "int256",
          "name": "",
          "type": "int256"
        }
      ],
      "payable": false,
      "stateMutability": "view",
      "type": "function"
    },
    {
      "constant": true,
      "inputs": [
        {
          "internalType": "uint256",
          "name": "",
          "type": "uint256"
        }
      ],
      "name": "transaction",
      "outputs": [
        {
          "internalType": "address",
          "name": "owner",
          "type": "address"
        },
        {
          "internalType": "string",
          "name": "transactionDetails",
          "type": "string"
        },
        {
          "internalType": "int64",
          "name": "amount",
          "type": "int64"
        }
      ],
      "payable": false,
      "stateMutability": "view",
      "type": "function"
    },
    {
      "constant": false,
      "inputs": [
        {
          "internalType": "string",
          "name": "desc",
          "type": "string"
        },
        {
          "internalType": "int64",
          "name": "amount",
          "type": "int64"
        }
      ],
      "name": "addTransaction",
      "outputs": [],
      "payable": false,
      "stateMutability": "nonpayable",
      "type": "function"
    },
    {
      "constant": true,
      "inputs": [],
      "name": "getTransactionCount",
      "outputs": [
        {
          "internalType": "uint256",
          "name": "",
          "type": "uint256"
        }
      ],
      "payable": false,
      "stateMutability": "view",
      "type": "function"
    }
  ],
  "bytecode": "0x6080604052600a60005534801561001557600080fd5b5061057b806100256000396000f3fe608060405234801561001057600080fd5b506004361061004c5760003560e01c80632e7700f01461005157806346bd08411461006f57806372d0647214610156578063b69ef8a81461021e575b600080fd5b61005961023c565b6040518082815260200191505060405180910390f35b61009b6004803603602081101561008557600080fd5b8101908080359060200190929190505050610249565b604051808473ffffffffffffffffffffffffffffffffffffffff1673ffffffffffffffffffffffffffffffffffffffff168152602001806020018360070b60070b8152602001828103825284818151815260200191508051906020019080838360005b838110156101195780820151818401526020810190506100fe565b50505050905090810190601f1680156101465780820380516001836020036101000a031916815260200191505b5094505050505060405180910390f35b61021c6004803603604081101561016c57600080fd5b810190808035906020019064010000000081111561018957600080fd5b82018360208201111561019b57600080fd5b803590602001918460018302840111640100000000831117156101bd57600080fd5b91908080601f016020809104026020016040519081016040528093929190818152602001838380828437600081840152601f19601f820116905080830192505050505050509192919290803560070b9060200190929190505050610345565b005b610226610461565b6040518082815260200191505060405180910390f35b6000600180549050905090565b6001818154811061025657fe5b90600052602060002090600302016000915090508060000160009054906101000a900473ffffffffffffffffffffffffffffffffffffffff1690806001018054600181600116156101000203166002900480601f0160208091040260200160405190810160405280929190818152602001828054600181600116156101000203166002900480156103285780601f106102fd57610100808354040283529160200191610328565b820191906000526020600020905b81548152906001019060200180831161030b57829003601f168201915b5050505050908060020160009054906101000a900460070b905083565b61034d610467565b60405180606001604052803373ffffffffffffffffffffffffffffffffffffffff1681526020018481526020018360070b81525090506001819080600181540180825580915050906001820390600052602060002090600302016000909192909190915060008201518160000160006101000a81548173ffffffffffffffffffffffffffffffffffffffff021916908373ffffffffffffffffffffffffffffffffffffffff16021790555060208201518160010190805190602001906104149291906104a1565b5060408201518160020160006101000a81548167ffffffffffffffff021916908360070b67ffffffffffffffff1602179055505050508160070b6000808282540192505081905550505050565b60005481565b6040518060600160405280600073ffffffffffffffffffffffffffffffffffffffff16815260200160608152602001600060070b81525090565b828054600181600116156101000203166002900490600052602060002090601f016020900481019282601f106104e257805160ff1916838001178555610510565b82800160010185558215610510579182015b8281111561050f5782518255916020019190600101906104f4565b5b50905061051d9190610521565b5090565b61054391905b8082111561053f576000816000905550600101610527565b5090565b9056fea265627a7a723158202f0abd2867c32d4eb7b2e8db0d489c24a9854866f46810beb88ebf2a1e56b2e764736f6c63430005100032",
  "source": "// SPDX-License-Identifier: MIT\n//@Author: Asad Iqbal\npragma solidity >=0.4.22 <0.9.0;\n\ncontract Tracker {\n    // initial balance \n    int public balance = 10;\n    // store transactions in an array(struct)\n    Transaction[] public transaction;\n\n    struct Transaction {\n        address owner;\n        string transactionDetails;\n        int64 amount;\n    }\n    // function to add transactions onto the blockchain\n    function addTransaction(string memory desc, int64 amount) public {\n        Transaction memory storedTrans = Transaction(msg.sender, desc, amount);\n        transaction.push(storedTrans);\n        balance += amount;\n    }\n    //function get available transactions in the arrary\n    function getTransactionCount() public view returns(uint){\n        return transaction.length;\n    }\n}",
  "sourcePath": "/Users/asadiqbal/Documents/Blockchain Development/expense-tracker-react/contracts/Tracker.sol",
  "compiler": {
    "name": "solc",
    "version": "0.5.16+commit.9c3226ce.Emscripten.clang"
  },
  "schemaVersion": "3.4.1",
  "updatedAt": "2021-06-21T00:52:55.585Z",
  "networkType": "ethereum",
  "devdoc": {
    "methods": {}
  },
  "userdoc": {
    "methods": {}
  }
}